:100000000C9434000C9400000C9400000C9400003C
:100010000C9400000C9400000C9400000C94000060
:100020000C9400000C9400000C9400000C94000050
:100030000C9400000C9400000C9400000C94000040
:100040000C9400000C9400000C9400000C94000030
:100050000C9400000C9400000C9400000C94000020
:100060000C9400000C940000F894EE27EFBBF1E034
:10007000F5BFE5BFF8E1A895A4B7A77FA4BFF093AB
:100080006000E09360008DE0A2E0BB27ED938A95CD
:10009000E9F780E098E0A0E0B1E0ED930197E9F79F
:1000A000E0E0EEBBEFEFEDBFE8E0EEBFC0E0D3E095
:1000B0000C947500E0E0E7BDE4E670D0A8EBBBE08F
:1000C00006C0E4E6E7BDE0E069D0A0E9B1E00E9447
:1000D000D600E0E0E7BDE8BDE0938800E0938A0049
:1000E000A4EFB1E00E94D6000895E0E8E09361003B
:1000F000E0E0E0936100E5B9EEE0E4B9E0E0E8B902
:10010000E7B9EBB9E8E6EAB9E3EAE4BDE5E0E5BD65
:10011000E0E0E6BDE7BDE8BDE1EAE0938000EDE0A8
:10012000E0938100E0E0E0938500E0938400E093B9
:100130008700E0938600E0938900E0938800E093D5
:100140008B00E0938A00E093B600E3EAE093B0000E
:10015000E0E0E093B100E093B200E093B300E093FD
:10016000B400E0936900EDBBE0936800E0936E009B
:10017000E0936F00E0937000E093C100E0E8E0BF1F
:10018000E0E0E0937B00E0937F00E0937A00ECBD39
:10019000E093BC008FDF95DFFDCFFFCFE8BDE4E645
:1001A000E0938800E0E0E0938A000895109639F02B
:1001B00080ED97E00197F1F7A8951197C9F7089599
:00000001FF
